{
  "_format": "hh-sol-artifact-1",
  "contractName": "CarbonEmissionTracker",
  "sourceName": "contracts/CarbonEmissionTracker.sol",
  "abi": [
    {
      "inputs": [
        {
          "internalType": "address[]",
          "name": "_pauserAddresses",
          "type": "address[]"
        },
        {
          "internalType": "uint256",
          "name": "_kmsGeneration",
          "type": "uint256"
        }
      ],
      "stateMutability": "nonpayable",
      "type": "constructor"
    },
    {
      "anonymous": false,
      "inputs": [
        {
          "indexed": true,
          "internalType": "address",
          "name": "company",
          "type": "address"
        },
        {
          "indexed": false,
          "internalType": "string",
          "name": "name",
          "type": "string"
        }
      ],
      "name": "CompanyRegistered",
      "type": "event"
    },
    {
      "anonymous": false,
      "inputs": [
        {
          "indexed": true,
          "internalType": "address",
          "name": "company",
          "type": "address"
        },
        {
          "indexed": true,
          "internalType": "address",
          "name": "verifier",
          "type": "address"
        }
      ],
      "name": "CompanyVerified",
      "type": "event"
    },
    {
      "anonymous": false,
      "inputs": [
        {
          "indexed": true,
          "internalType": "address",
          "name": "by",
          "type": "address"
        },
        {
          "indexed": false,
          "internalType": "uint256",
          "name": "timestamp",
          "type": "uint256"
        }
      ],
      "name": "ContractPaused",
      "type": "event"
    },
    {
      "anonymous": false,
      "inputs": [
        {
          "indexed": true,
          "internalType": "address",
          "name": "by",
          "type": "address"
        },
        {
          "indexed": false,
          "internalType": "uint256",
          "name": "timestamp",
          "type": "uint256"
        }
      ],
      "name": "ContractUnpaused",
      "type": "event"
    },
    {
      "anonymous": false,
      "inputs": [
        {
          "indexed": true,
          "internalType": "uint256",
          "name": "requestId",
          "type": "uint256"
        },
        {
          "indexed": true,
          "internalType": "address",
          "name": "requester",
          "type": "address"
        },
        {
          "indexed": false,
          "internalType": "uint256",
          "name": "kmsGeneration",
          "type": "uint256"
        },
        {
          "indexed": false,
          "internalType": "bytes32",
          "name": "encryptedValue",
          "type": "bytes32"
        },
        {
          "indexed": false,
          "internalType": "uint256",
          "name": "timestamp",
          "type": "uint256"
        }
      ],
      "name": "DecryptionRequested",
      "type": "event"
    },
    {
      "anonymous": false,
      "inputs": [
        {
          "indexed": true,
          "internalType": "uint256",
          "name": "requestId",
          "type": "uint256"
        },
        {
          "indexed": true,
          "internalType": "address",
          "name": "kmsNode",
          "type": "address"
        },
        {
          "indexed": false,
          "internalType": "bytes",
          "name": "encryptedShare",
          "type": "bytes"
        },
        {
          "indexed": false,
          "internalType": "bytes",
          "name": "signature",
          "type": "bytes"
        },
        {
          "indexed": false,
          "internalType": "uint256",
          "name": "timestamp",
          "type": "uint256"
        }
      ],
      "name": "DecryptionResponse",
      "type": "event"
    },
    {
      "anonymous": false,
      "inputs": [
        {
          "indexed": true,
          "internalType": "address",
          "name": "company",
          "type": "address"
        },
        {
          "indexed": true,
          "internalType": "uint256",
          "name": "period",
          "type": "uint256"
        }
      ],
      "name": "EmissionReported",
      "type": "event"
    },
    {
      "anonymous": false,
      "inputs": [
        {
          "indexed": false,
          "internalType": "uint256",
          "name": "oldGeneration",
          "type": "uint256"
        },
        {
          "indexed": false,
          "internalType": "uint256",
          "name": "newGeneration",
          "type": "uint256"
        }
      ],
      "name": "KmsGenerationUpdated",
      "type": "event"
    },
    {
      "anonymous": false,
      "inputs": [
        {
          "indexed": true,
          "internalType": "address",
          "name": "pauser",
          "type": "address"
        },
        {
          "indexed": false,
          "internalType": "uint256",
          "name": "timestamp",
          "type": "uint256"
        }
      ],
      "name": "PauserAdded",
      "type": "event"
    },
    {
      "anonymous": false,
      "inputs": [
        {
          "indexed": true,
          "internalType": "address",
          "name": "pauser",
          "type": "address"
        },
        {
          "indexed": false,
          "internalType": "uint256",
          "name": "timestamp",
          "type": "uint256"
        }
      ],
      "name": "PauserRemoved",
      "type": "event"
    },
    {
      "anonymous": false,
      "inputs": [
        {
          "indexed": true,
          "internalType": "uint256",
          "name": "period",
          "type": "uint256"
        },
        {
          "indexed": false,
          "internalType": "uint256",
          "name": "participatingCompanies",
          "type": "uint256"
        }
      ],
      "name": "PeriodClosed",
      "type": "event"
    },
    {
      "anonymous": false,
      "inputs": [
        {
          "indexed": true,
          "internalType": "address",
          "name": "company",
          "type": "address"
        },
        {
          "indexed": true,
          "internalType": "uint256",
          "name": "period",
          "type": "uint256"
        },
        {
          "indexed": true,
          "internalType": "address",
          "name": "verifier",
          "type": "address"
        }
      ],
      "name": "ReportVerified",
      "type": "event"
    },
    {
      "anonymous": false,
      "inputs": [
        {
          "indexed": true,
          "internalType": "address",
          "name": "verifier",
          "type": "address"
        }
      ],
      "name": "VerifierAdded",
      "type": "event"
    },
    {
      "anonymous": false,
      "inputs": [
        {
          "indexed": true,
          "internalType": "address",
          "name": "verifier",
          "type": "address"
        }
      ],
      "name": "VerifierRemoved",
      "type": "event"
    },
    {
      "inputs": [
        {
          "internalType": "address",
          "name": "_pauser",
          "type": "address"
        }
      ],
      "name": "addPauser",
      "outputs": [],
      "stateMutability": "nonpayable",
      "type": "function"
    },
    {
      "inputs": [
        {
          "internalType": "address",
          "name": "_verifier",
          "type": "address"
        }
      ],
      "name": "addVerifier",
      "outputs": [],
      "stateMutability": "nonpayable",
      "type": "function"
    },
    {
      "inputs": [
        {
          "internalType": "address",
          "name": "",
          "type": "address"
        }
      ],
      "name": "authorizedVerifiers",
      "outputs": [
        {
          "internalType": "bool",
          "name": "",
          "type": "bool"
        }
      ],
      "stateMutability": "view",
      "type": "function"
    },
    {
      "inputs": [],
      "name": "closePeriodAndAdvance",
      "outputs": [],
      "stateMutability": "nonpayable",
      "type": "function"
    },
    {
      "inputs": [
        {
          "internalType": "address",
          "name": "",
          "type": "address"
        }
      ],
      "name": "companies",
      "outputs": [
        {
          "internalType": "address",
          "name": "wallet",
          "type": "address"
        },
        {
          "internalType": "string",
          "name": "name",
          "type": "string"
        },
        {
          "internalType": "bool",
          "name": "isRegistered",
          "type": "bool"
        },
        {
          "internalType": "bool",
          "name": "isVerified",
          "type": "bool"
        },
        {
          "internalType": "uint256",
          "name": "registrationTime",
          "type": "uint256"
        }
      ],
      "stateMutability": "view",
      "type": "function"
    },
    {
      "inputs": [],
      "name": "currentReportingPeriod",
      "outputs": [
        {
          "internalType": "uint256",
          "name": "",
          "type": "uint256"
        }
      ],
      "stateMutability": "view",
      "type": "function"
    },
    {
      "inputs": [],
      "name": "decryptionRequestCounter",
      "outputs": [
        {
          "internalType": "uint256",
          "name": "",
          "type": "uint256"
        }
      ],
      "stateMutability": "view",
      "type": "function"
    },
    {
      "inputs": [
        {
          "internalType": "uint256",
          "name": "",
          "type": "uint256"
        }
      ],
      "name": "decryptionRequests",
      "outputs": [
        {
          "internalType": "uint256",
          "name": "requestId",
          "type": "uint256"
        },
        {
          "internalType": "address",
          "name": "requester",
          "type": "address"
        },
        {
          "internalType": "bytes32",
          "name": "encryptedValue",
          "type": "bytes32"
        },
        {
          "internalType": "uint256",
          "name": "timestamp",
          "type": "uint256"
        },
        {
          "internalType": "bool",
          "name": "fulfilled",
          "type": "bool"
        },
        {
          "internalType": "uint256",
          "name": "kmsGeneration",
          "type": "uint256"
        }
      ],
      "stateMutability": "view",
      "type": "function"
    },
    {
      "inputs": [],
      "name": "emergencyPause",
      "outputs": [],
      "stateMutability": "nonpayable",
      "type": "function"
    },
    {
      "inputs": [
        {
          "internalType": "address",
          "name": "",
          "type": "address"
        },
        {
          "internalType": "uint256",
          "name": "",
          "type": "uint256"
        }
      ],
      "name": "emissionReports",
      "outputs": [
        {
          "internalType": "euint32",
          "name": "encryptedDirectEmissions",
          "type": "bytes32"
        },
        {
          "internalType": "euint32",
          "name": "encryptedIndirectEmissions",
          "type": "bytes32"
        },
        {
          "internalType": "euint32",
          "name": "encryptedSupplyChainEmissions",
          "type": "bytes32"
        },
        {
          "internalType": "euint64",
          "name": "encryptedEnergyConsumption",
          "type": "bytes32"
        },
        {
          "internalType": "uint256",
          "name": "reportingPeriod",
          "type": "uint256"
        },
        {
          "internalType": "uint256",
          "name": "timestamp",
          "type": "uint256"
        },
        {
          "internalType": "bool",
          "name": "isSubmitted",
          "type": "bool"
        },
        {
          "internalType": "bool",
          "name": "isVerified",
          "type": "bool"
        }
      ],
      "stateMutability": "view",
      "type": "function"
    },
    {
      "inputs": [
        {
          "internalType": "address",
          "name": "_company",
          "type": "address"
        }
      ],
      "name": "getCompanyInfo",
      "outputs": [
        {
          "internalType": "string",
          "name": "name",
          "type": "string"
        },
        {
          "internalType": "bool",
          "name": "isRegistered",
          "type": "bool"
        },
        {
          "internalType": "bool",
          "name": "isVerified",
          "type": "bool"
        },
        {
          "internalType": "uint256",
          "name": "registrationTime",
          "type": "uint256"
        }
      ],
      "stateMutability": "view",
      "type": "function"
    },
    {
      "inputs": [],
      "name": "getCurrentPeriod",
      "outputs": [
        {
          "internalType": "uint256",
          "name": "",
          "type": "uint256"
        }
      ],
      "stateMutability": "view",
      "type": "function"
    },
    {
      "inputs": [
        {
          "internalType": "address",
          "name": "_company",
          "type": "address"
        },
        {
          "internalType": "uint256",
          "name": "_period",
          "type": "uint256"
        }
      ],
      "name": "getEncryptedEmissions",
      "outputs": [
        {
          "internalType": "bytes32",
          "name": "directEmissions",
          "type": "bytes32"
        },
        {
          "internalType": "bytes32",
          "name": "indirectEmissions",
          "type": "bytes32"
        },
        {
          "internalType": "bytes32",
          "name": "supplyChainEmissions",
          "type": "bytes32"
        },
        {
          "internalType": "bytes32",
          "name": "energyConsumption",
          "type": "bytes32"
        }
      ],
      "stateMutability": "view",
      "type": "function"
    },
    {
      "inputs": [
        {
          "internalType": "uint256",
          "name": "_index",
          "type": "uint256"
        }
      ],
      "name": "getPauserAtIndex",
      "outputs": [
        {
          "internalType": "address",
          "name": "",
          "type": "address"
        }
      ],
      "stateMutability": "view",
      "type": "function"
    },
    {
      "inputs": [],
      "name": "getPauserCount",
      "outputs": [
        {
          "internalType": "uint256",
          "name": "",
          "type": "uint256"
        }
      ],
      "stateMutability": "view",
      "type": "function"
    },
    {
      "inputs": [
        {
          "internalType": "uint256",
          "name": "_period",
          "type": "uint256"
        }
      ],
      "name": "getPeriodStats",
      "outputs": [
        {
          "internalType": "uint256",
          "name": "participatingCompanies",
          "type": "uint256"
        },
        {
          "internalType": "uint256",
          "name": "totalReports",
          "type": "uint256"
        },
        {
          "internalType": "bool",
          "name": "periodClosed",
          "type": "bool"
        },
        {
          "internalType": "uint256",
          "name": "closeTime",
          "type": "uint256"
        }
      ],
      "stateMutability": "view",
      "type": "function"
    },
    {
      "inputs": [],
      "name": "getRegisteredCompanies",
      "outputs": [
        {
          "internalType": "address[]",
          "name": "",
          "type": "address[]"
        }
      ],
      "stateMutability": "view",
      "type": "function"
    },
    {
      "inputs": [
        {
          "internalType": "address",
          "name": "_company",
          "type": "address"
        },
        {
          "internalType": "uint256",
          "name": "_period",
          "type": "uint256"
        }
      ],
      "name": "getReportStatus",
      "outputs": [
        {
          "internalType": "bool",
          "name": "isSubmitted",
          "type": "bool"
        },
        {
          "internalType": "bool",
          "name": "isVerified",
          "type": "bool"
        },
        {
          "internalType": "uint256",
          "name": "timestamp",
          "type": "uint256"
        }
      ],
      "stateMutability": "view",
      "type": "function"
    },
    {
      "inputs": [],
      "name": "getTotalCompanies",
      "outputs": [
        {
          "internalType": "uint256",
          "name": "",
          "type": "uint256"
        }
      ],
      "stateMutability": "view",
      "type": "function"
    },
    {
      "inputs": [
        {
          "internalType": "address",
          "name": "_to",
          "type": "address"
        },
        {
          "internalType": "uint256",
          "name": "_period",
          "type": "uint256"
        }
      ],
      "name": "grantReportAccess",
      "outputs": [],
      "stateMutability": "nonpayable",
      "type": "function"
    },
    {
      "inputs": [],
      "name": "isContractPaused",
      "outputs": [
        {
          "internalType": "bool",
          "name": "",
          "type": "bool"
        }
      ],
      "stateMutability": "view",
      "type": "function"
    },
    {
      "inputs": [],
      "name": "isPaused",
      "outputs": [
        {
          "internalType": "bool",
          "name": "",
          "type": "bool"
        }
      ],
      "stateMutability": "view",
      "type": "function"
    },
    {
      "inputs": [
        {
          "internalType": "address",
          "name": "_address",
          "type": "address"
        }
      ],
      "name": "isPauser",
      "outputs": [
        {
          "internalType": "bool",
          "name": "",
          "type": "bool"
        }
      ],
      "stateMutability": "view",
      "type": "function"
    },
    {
      "inputs": [
        {
          "internalType": "address",
          "name": "",
          "type": "address"
        }
      ],
      "name": "isPauserAddress",
      "outputs": [
        {
          "internalType": "bool",
          "name": "",
          "type": "bool"
        }
      ],
      "stateMutability": "view",
      "type": "function"
    },
    {
      "inputs": [
        {
          "internalType": "uint256",
          "name": "_period",
          "type": "uint256"
        }
      ],
      "name": "isPeriodValid",
      "outputs": [
        {
          "internalType": "bool",
          "name": "",
          "type": "bool"
        }
      ],
      "stateMutability": "view",
      "type": "function"
    },
    {
      "inputs": [],
      "name": "isPublicDecryptAllowed",
      "outputs": [
        {
          "internalType": "bool",
          "name": "",
          "type": "bool"
        }
      ],
      "stateMutability": "view",
      "type": "function"
    },
    {
      "inputs": [
        {
          "internalType": "address",
          "name": "_address",
          "type": "address"
        }
      ],
      "name": "isVerifier",
      "outputs": [
        {
          "internalType": "bool",
          "name": "",
          "type": "bool"
        }
      ],
      "stateMutability": "view",
      "type": "function"
    },
    {
      "inputs": [],
      "name": "kmsGeneration",
      "outputs": [
        {
          "internalType": "uint256",
          "name": "",
          "type": "uint256"
        }
      ],
      "stateMutability": "view",
      "type": "function"
    },
    {
      "inputs": [],
      "name": "owner",
      "outputs": [
        {
          "internalType": "address",
          "name": "",
          "type": "address"
        }
      ],
      "stateMutability": "view",
      "type": "function"
    },
    {
      "inputs": [],
      "name": "pause",
      "outputs": [],
      "stateMutability": "nonpayable",
      "type": "function"
    },
    {
      "inputs": [
        {
          "internalType": "uint256",
          "name": "",
          "type": "uint256"
        }
      ],
      "name": "pauserAddresses",
      "outputs": [
        {
          "internalType": "address",
          "name": "",
          "type": "address"
        }
      ],
      "stateMutability": "view",
      "type": "function"
    },
    {
      "inputs": [
        {
          "internalType": "uint256",
          "name": "",
          "type": "uint256"
        }
      ],
      "name": "periodStats",
      "outputs": [
        {
          "internalType": "uint256",
          "name": "participatingCompanies",
          "type": "uint256"
        },
        {
          "internalType": "uint256",
          "name": "totalReports",
          "type": "uint256"
        },
        {
          "internalType": "bool",
          "name": "periodClosed",
          "type": "bool"
        },
        {
          "internalType": "uint256",
          "name": "closeTime",
          "type": "uint256"
        }
      ],
      "stateMutability": "view",
      "type": "function"
    },
    {
      "inputs": [
        {
          "internalType": "string",
          "name": "_name",
          "type": "string"
        }
      ],
      "name": "registerCompany",
      "outputs": [],
      "stateMutability": "nonpayable",
      "type": "function"
    },
    {
      "inputs": [
        {
          "internalType": "uint256",
          "name": "",
          "type": "uint256"
        }
      ],
      "name": "registeredCompanies",
      "outputs": [
        {
          "internalType": "address",
          "name": "",
          "type": "address"
        }
      ],
      "stateMutability": "view",
      "type": "function"
    },
    {
      "inputs": [
        {
          "internalType": "address",
          "name": "_pauser",
          "type": "address"
        }
      ],
      "name": "removePauser",
      "outputs": [],
      "stateMutability": "nonpayable",
      "type": "function"
    },
    {
      "inputs": [
        {
          "internalType": "address",
          "name": "_verifier",
          "type": "address"
        }
      ],
      "name": "removeVerifier",
      "outputs": [],
      "stateMutability": "nonpayable",
      "type": "function"
    },
    {
      "inputs": [
        {
          "internalType": "bytes32",
          "name": "_encryptedValue",
          "type": "bytes32"
        }
      ],
      "name": "requestDecryption",
      "outputs": [
        {
          "internalType": "uint256",
          "name": "",
          "type": "uint256"
        }
      ],
      "stateMutability": "nonpayable",
      "type": "function"
    },
    {
      "inputs": [
        {
          "internalType": "uint256",
          "name": "_requestId",
          "type": "uint256"
        },
        {
          "internalType": "bytes",
          "name": "_encryptedShare",
          "type": "bytes"
        },
        {
          "internalType": "bytes",
          "name": "_signature",
          "type": "bytes"
        }
      ],
      "name": "submitDecryptionResponse",
      "outputs": [],
      "stateMutability": "nonpayable",
      "type": "function"
    },
    {
      "inputs": [
        {
          "internalType": "uint32",
          "name": "_directEmissions",
          "type": "uint32"
        },
        {
          "internalType": "uint32",
          "name": "_indirectEmissions",
          "type": "uint32"
        },
        {
          "internalType": "uint32",
          "name": "_supplyChainEmissions",
          "type": "uint32"
        },
        {
          "internalType": "uint64",
          "name": "_energyConsumption",
          "type": "uint64"
        }
      ],
      "name": "submitEmissionReport",
      "outputs": [],
      "stateMutability": "nonpayable",
      "type": "function"
    },
    {
      "inputs": [],
      "name": "totalCompanies",
      "outputs": [
        {
          "internalType": "uint256",
          "name": "",
          "type": "uint256"
        }
      ],
      "stateMutability": "view",
      "type": "function"
    },
    {
      "inputs": [],
      "name": "unpause",
      "outputs": [],
      "stateMutability": "nonpayable",
      "type": "function"
    },
    {
      "inputs": [
        {
          "internalType": "uint256",
          "name": "_newGeneration",
          "type": "uint256"
        }
      ],
      "name": "updateKmsGeneration",
      "outputs": [],
      "stateMutability": "nonpayable",
      "type": "function"
    },
    {
      "inputs": [
        {
          "internalType": "address",
          "name": "_company",
          "type": "address"
        }
      ],
      "name": "verifyCompany",
      "outputs": [],
      "stateMutability": "nonpayable",
      "type": "function"
    },
    {
      "inputs": [
        {
          "internalType": "address",
          "name": "_company",
          "type": "address"
        },
        {
          "internalType": "uint256",
          "name": "_period",
          "type": "uint256"
        }
      ],
      "name": "verifyEmissionReport",
      "outputs": [],
      "stateMutability": "nonpayable",
      "type": "function"
    }
  ],
  "bytecode": "0x608060405234801562000010575f80fd5b5060405162002ddd38038062002ddd833981016040819052620000339162000394565b620001af620000d3604080516080810182525f80825260208201819052918101829052606081019190915250604080516080810182527350157cffd6bbfa2dece204a89ec419c23ef5755d815273cd3ab3bd6bcc0c0bf3e27912a92043e817b1cf696020820152731364cbbf2cdf5032c47d8226a6f6fbd2afcdacac9181019190915273901f8942346f7ab3a01f6d7613119bca447bb030606082015290565b80517fed8d60e34876f751cc8b014c560745351147d9de11b9347c854e881b128ea60080546001600160a01b03199081166001600160a01b039384161790915560208301517fed8d60e34876f751cc8b014c560745351147d9de11b9347c854e881b128ea6018054831691841691909117905560408301517fed8d60e34876f751cc8b014c560745351147d9de11b9347c854e881b128ea6028054831691841691909117905560608301517fed8d60e34876f751cc8b014c560745351147d9de11b9347c854e881b128ea6038054909216921691909117905550565b7f5ea69329017273582817d320489fbd94f775580e90c092699ca6f3d12fdf7d0080546001600160a01b03191673a02cda4ca3a71d7c46997716f4283aa851c288121790555f80546001600160a01b03191633908117825560016002819055828155908252600b60205260408220805460ff199081169092179055600383905560058054909116905560078190555b82518110156200035b5760048382815181106200025f576200025f62000469565b6020908102919091018101518254600180820185555f9485529284200180546001600160a01b0319166001600160a01b0390921691909117905584519091600691869085908110620002b557620002b562000469565b60200260200101516001600160a01b03166001600160a01b031681526020019081526020015f205f6101000a81548160ff02191690831515021790555082818151811062000307576200030762000469565b60200260200101516001600160a01b03167f0ad15ebec79c7d7b2785c7b5d8a7df78be193da0f65dff2d7c539a0992d53e37426040516200034a91815260200190565b60405180910390a26001016200023e565b5050506200047d565b634e487b7160e01b5f52604160045260245ffd5b80516001600160a01b03811681146200038f575f80fd5b919050565b5f8060408385031215620003a6575f80fd5b82516001600160401b0380821115620003bd575f80fd5b818501915085601f830112620003d1575f80fd5b8151602082821115620003e857620003e862000364565b8160051b604051601f19603f8301168101818110868211171562000410576200041062000364565b6040529283528183019350848101820192898411156200042e575f80fd5b948201945b838610156200045757620004478662000378565b8552948201949382019362000433565b97909101519698969750505050505050565b634e487b7160e01b5f52603260045260245ffd5b612952806200048b5f395ff3fe608060405234801561000f575f80fd5b50600436106102e2575f3560e01c80637499888f11610187578063ad12f795116100dd578063ce0a8ed511610093578063e513af601161006e578063e513af601461080d578063f4ab292814610816578063f592146d14610821575f80fd5b8063ce0a8ed51461074d578063d3722d0114610762578063dcaee502146107eb575f80fd5b8063c801d758116100c3578063c801d7581461071b578063c84cd8c014610727578063ca2dfd0a1461073a575f80fd5b8063ad12f79514610705578063b187bd261461070e575f80fd5b80638d39b43b1161013d57806391136b651161011857806391136b65146106c85780639a891716146106d05780639c1e818c146106f2575f80fd5b80638d39b43b146106035780638da5cb5b146106a35780639000b3d6146106b5575f80fd5b80637e7312cb1161016d5780637e7312cb146105ae57806382dc1ec4146105e85780638456cb59146105fb575f80fd5b80637499888f146105885780637adfe96e1461059b575f80fd5b806347b64e8e1161023c5780635e13c467116101f25780636b2c0f55116101cd5780636b2c0f55146105595780636d8d2c6d1461056c57806373953b8014610575575f80fd5b80635e13c467146104aa5780635e96b80d14610513578063647ac58f14610526575f80fd5b80634d479584116102225780634d4795841461047c57806351858e271461048f57806352d471e914610497575f80fd5b806347b64e8e14610461578063486b1b1114610474575f80fd5b8063331052181161029c5780633f4ba83a116102775780633f4ba83a1461040b57806342e12c831461041357806346fbf68e14610436575f80fd5b806333105218146103a3578063355e6ce8146103de5780633b4cc7a314610402575f80fd5b806306510bda116102cc57806306510bda1461032b578063086146d21461038957806310bcd02a1461039b575f80fd5b8062544194146102e6578063026fef7f146102fb575b5f80fd5b6102f96102f436600461240d565b610834565b005b61030e61030936600461244c565b610aad565b6040516001600160a01b0390911681526020015b60405180910390f35b61036361033936600461244c565b5f908152600a602052604090208054600182015460028301546003909301549193909260ff169190565b604080519485526020850193909352901515918301919091526060820152608001610322565b6002545b604051908152602001610322565b6102f9610ad5565b6103ce6103b1366004612479565b6001600160a01b03165f908152600b602052604090205460ff1690565b6040519015158152602001610322565b6103f16103ec366004612479565b610c51565b6040516103229594939291906124dc565b61038d60015481565b6102f9610d16565b610426610421366004612479565b610df4565b604051610322949392919061251a565b6103ce610444366004612479565b6001600160a01b03165f9081526006602052604090205460ff1690565b6102f961046f366004612548565b610ece565b60015461038d565b61038d61048a36600461244c565b6110da565b6102f9611232565b6103ce6104a536600461244c565b6112c0565b6104f66104b8366004612548565b6001600160a01b03919091165f90815260096020908152604080832093835292905220600681015460059091015460ff808316936101009093041691565b604080519315158452911515602084015290820152606001610322565b61030e61052136600461244c565b6112d7565b610539610534366004612548565b6112e6565b604080519485526020850193909352918301526060820152608001610322565b6102f9610567366004612479565b611385565b61038d60075481565b6102f9610583366004612548565b611580565b6102f9610596366004612570565b61168d565b61030e6105a936600461244c565b61173a565b6103636105bc36600461244c565b600a6020525f908152604090208054600182015460028301546003909301549192909160ff9091169084565b6102f96105f6366004612479565b6117ba565b6102f9611957565b610664610611366004612548565b600960209081525f92835260408084209091529082529020805460018201546002830154600384015460048501546005860154600690960154949593949293919290919060ff8082169161010090041688565b604080519889526020890197909752958701949094526060860192909252608085015260a0840152151560c0830152151560e082015261010001610322565b5f5461030e906001600160a01b031681565b6102f96106c3366004612479565b6119f7565b60045461038d565b6103ce6106de366004612479565b600b6020525f908152604090205460ff1681565b6102f96107003660046125f7565b611af4565b61038d60025481565b6005546103ce9060ff1681565b60055460ff16156103ce565b6102f961073536600461244c565b611e0e565b6102f9610748366004612479565b611e9d565b610755611ff3565b6040516103229190612656565b6107b461077036600461244c565b600c6020525f908152604090208054600182015460028301546003840154600485015460059095015493946001600160a01b03909316939192909160ff9091169086565b604080519687526001600160a01b0390951660208701529385019290925260608401521515608083015260a082015260c001610322565b6103ce6107f9366004612479565b60066020525f908152604090205460ff1681565b61038d60035481565b60055460ff166103ce565b6102f961082f366004612479565b612053565b60055460ff16156108815760405162461bcd60e51b815260206004820152601260248201527110dbdb9d1c9858dd081a5cc81c185d5cd95960721b60448201526064015b60405180910390fd5b335f9081526008602052604090206002015460ff16156108e35760405162461bcd60e51b815260206004820152601a60248201527f436f6d70616e7920616c726561647920726567697374657265640000000000006044820152606401610878565b806109305760405162461bcd60e51b815260206004820152601560248201527f436f6d70616e79206e616d6520726571756972656400000000000000000000006044820152606401610878565b6040518060a00160405280336001600160a01b0316815260200183838080601f0160208091040260200160405190810160405280939291908181526020018383808284375f9201829052509385525050600160208085018290526040808601859052426060909601959095523384526008815293909220845181546001600160a01b0319166001600160a01b0390911617815592840151918301916109d691508261273a565b506040820151600282018054606085015115156101000261ff00199315159390931661ffff1990911617919091179055608090910151600390910155600d8054600181810183555f9283527fd7b6990105719101dabeb77144f2a3385c8033acd3af97e9423a695e81ad1eb590910180546001600160a01b03191633179055805491610a618361280e565b9190505550336001600160a01b03167f76686aa361308f4a08557cca1a847299ce61e5602a3495cd359a599a1dca438c8383604051610aa192919061284e565b60405180910390a25050565b60048181548110610abc575f80fd5b5f918252602090912001546001600160a01b0316905081565b5f546001600160a01b03163314610b1f5760405162461bcd60e51b815260206004820152600e60248201526d139bdd08185d5d1a1bdc9a5e995960921b6044820152606401610878565b60055460ff1615610b675760405162461bcd60e51b815260206004820152601260248201527110dbdb9d1c9858dd081a5cc81c185d5cd95960721b6044820152606401610878565b600280545f908152600a60205260409020015460ff1615610bca5760405162461bcd60e51b815260206004820152601560248201527f506572696f6420616c726561647920636c6f73656400000000000000000000006044820152606401610878565b600280545f908152600a60205260408082208301805460ff19166001179055825482528082204260039091015591548082529082902054915190917f8deaacba1e0606cd9e75aec4cb0fefc4c1df8d262d3a05f83107f8c067e8891f91610c3391815260200190565b60405180910390a260028054905f610c4a8361280e565b9190505550565b60086020525f9081526040902080546001820180546001600160a01b039092169291610c7c906126b6565b80601f0160208091040260200160405190810160405280929190818152602001828054610ca8906126b6565b8015610cf35780601f10610cca57610100808354040283529160200191610cf3565b820191905f5260205f20905b815481529060010190602001808311610cd657829003601f168201915b505050506002830154600390930154919260ff8082169361010090920416915085565b5f546001600160a01b03163314610d605760405162461bcd60e51b815260206004820152600e60248201526d139bdd08185d5d1a1bdc9a5e995960921b6044820152606401610878565b60055460ff16610db25760405162461bcd60e51b815260206004820152600a60248201527f4e6f7420706175736564000000000000000000000000000000000000000000006044820152606401610878565b6005805460ff1916905560405142815233907f107553d8191d85b405879cf752997865edd48d94e20bda4dd27223c94b31a7cc906020015b60405180910390a2565b6001600160a01b0381165f90815260086020526040812060028101546003820154600183018054606095948594859491939260ff808316936101009093041691908490610e40906126b6565b80601f0160208091040260200160405190810160405280929190818152602001828054610e6c906126b6565b8015610eb75780601f10610e8e57610100808354040283529160200191610eb7565b820191905f5260205f20905b815481529060010190602001808311610e9a57829003601f168201915b505050505093509450945094509450509193509193565b335f908152600b602052604090205460ff1680610ef457505f546001600160a01b031633145b610f405760405162461bcd60e51b815260206004820152601760248201527f4e6f7420617574686f72697a65642076657269666965720000000000000000006044820152606401610878565b60055460ff1615610f885760405162461bcd60e51b815260206004820152601260248201527110dbdb9d1c9858dd081a5cc81c185d5cd95960721b6044820152606401610878565b6001600160a01b0382165f90815260096020908152604080832084845290915290206006015460ff16610ffd5760405162461bcd60e51b815260206004820152601360248201527f4e6f207265706f7274207375626d6974746564000000000000000000000000006044820152606401610878565b6001600160a01b0382165f908152600960209081526040808320848452909152902060060154610100900460ff16156110785760405162461bcd60e51b815260206004820152601760248201527f5265706f727420616c72656164792076657269666965640000000000000000006044820152606401610878565b6001600160a01b0382165f818152600960209081526040808320858452909152808220600601805461ff001916610100179055513392849290917fb0871677d83584a919b2332fa665e3a9732067f068a9f033628322a078f77bfb9190a45050565b335f9081526008602052604081206002015460ff1661113b5760405162461bcd60e51b815260206004820152601660248201527f436f6d70616e79206e6f742072656769737465726564000000000000000000006044820152606401610878565b5f60075f815461114a9061280e565b91829055506040805160c0810182528281523360208083018281528385018981524260608087018281525f608089018181526003805460a08c019081528d8452600c8a52928c90209a518b55965160018b0180546001600160a01b0319166001600160a01b03909216919091179055945160028a0155905188860155925160048801805460ff19169115159190911790559151600590960195909555905485519081529182018990529381019290925292935083917f5b585d7dd6e029cb6fdb2ed1aab57d9595373d52232357d506198068a075e7d0910160405180910390a390505b919050565b335f9081526006602052604090205460ff1661127f5760405162461bcd60e51b815260206004820152600c60248201526b2737ba1030903830bab9b2b960a11b6044820152606401610878565b6005805460ff1916600117905560405133907f80170b5fcdd2bf1e0660ef4b8851f86685f64d41b1a19de1471947ece8725aac90610dea9042815260200190565b5f80821180156112d1575060025482105b92915050565b600d8181548110610abc575f80fd5b6001600160a01b0382165f908152600960209081526040808320848452909152812060068101548291829182919060ff166113635760405162461bcd60e51b815260206004820152601360248201527f4e6f207265706f7274207375626d6974746564000000000000000000000000006044820152606401610878565b8054600182015460028301546003840154929a91995097509095509350505050565b5f546001600160a01b031633146113cf5760405162461bcd60e51b815260206004820152600e60248201526d139bdd08185d5d1a1bdc9a5e995960921b6044820152606401610878565b6001600160a01b0381165f9081526006602052604090205460ff166114255760405162461bcd60e51b815260206004820152600c60248201526b2737ba1030903830bab9b2b960a11b6044820152606401610878565b6001600160a01b0381165f908152600660205260408120805460ff191690555b60045481101561153957816001600160a01b03166004828154811061146c5761146c612861565b5f918252602090912001546001600160a01b031603611531576004805461149590600190612875565b815481106114a5576114a5612861565b5f91825260209091200154600480546001600160a01b0390921691839081106114d0576114d0612861565b905f5260205f20015f6101000a8154816001600160a01b0302191690836001600160a01b03160217905550600480548061150c5761150c612888565b5f8281526020902081015f1990810180546001600160a01b0319169055019055611539565b600101611445565b50806001600160a01b03167f09d663ecc0eac31928bc933e50d7b947f6c93e150383c8c0b317c437a0f0a12d4260405161157591815260200190565b60405180910390a250565b335f9081526008602052604090206002015460ff166115e15760405162461bcd60e51b815260206004820152601660248201527f436f6d70616e79206e6f742072656769737465726564000000000000000000006044820152606401610878565b335f9081526009602090815260408083208484529091529020600681015460ff1661164e5760405162461bcd60e51b815260206004820152601260248201527f4e6f207265706f727420746f20736861726500000000000000000000000000006044820152606401610878565b805461165a9084612239565b50611669816001015484612239565b50611678816002015484612239565b50611687816003015484612239565b50505050565b5f858152600c602052604090205485146116e95760405162461bcd60e51b815260206004820152600f60248201527f496e76616c6964207265717565737400000000000000000000000000000000006044820152606401610878565b336001600160a01b0316857f7c928c5fcc307a0be08cab90a20b1e1233adb2226579e4118fb62ee51801318f868686864260405161172b95949392919061289c565b60405180910390a35050505050565b6004545f90821061178d5760405162461bcd60e51b815260206004820152601360248201527f496e646578206f7574206f6620626f756e6473000000000000000000000000006044820152606401610878565b600482815481106117a0576117a0612861565b5f918252602090912001546001600160a01b031692915050565b5f546001600160a01b031633146118045760405162461bcd60e51b815260206004820152600e60248201526d139bdd08185d5d1a1bdc9a5e995960921b6044820152606401610878565b6001600160a01b03811661185a5760405162461bcd60e51b815260206004820152601660248201527f496e76616c6964207061757365722061646472657373000000000000000000006044820152606401610878565b6001600160a01b0381165f9081526006602052604090205460ff16156118c25760405162461bcd60e51b815260206004820152601060248201527f416c7265616479206120706175736572000000000000000000000000000000006044820152606401610878565b6004805460018082019092557f8a35acfbc15ff81a39ae7d344fd709f28e8600b4aa8c65c6b64bfe7fe36bd19b0180546001600160a01b0319166001600160a01b0384169081179091555f81815260066020908152604091829020805460ff19169094179093555142815290917f0ad15ebec79c7d7b2785c7b5d8a7df78be193da0f65dff2d7c539a0992d53e379101611575565b335f9081526006602052604090205460ff166119a45760405162461bcd60e51b815260206004820152600c60248201526b2737ba1030903830bab9b2b960a11b6044820152606401610878565b60055460ff161561127f5760405162461bcd60e51b815260206004820152600e60248201527f416c7265616479207061757365640000000000000000000000000000000000006044820152606401610878565b5f546001600160a01b03163314611a415760405162461bcd60e51b815260206004820152600e60248201526d139bdd08185d5d1a1bdc9a5e995960921b6044820152606401610878565b6001600160a01b0381165f908152600b602052604090205460ff1615611aa95760405162461bcd60e51b815260206004820152601260248201527f416c7265616479206120766572696669657200000000000000000000000000006044820152606401610878565b6001600160a01b0381165f818152600b6020526040808220805460ff19166001179055517f6d05492139c5ea989514a5d2150c028041e5c087e2a39967f67dc7d2655adb819190a250565b335f90815260086020526040902060020154610100900460ff16611b5a5760405162461bcd60e51b815260206004820152601460248201527f436f6d70616e79206e6f742076657269666965640000000000000000000000006044820152606401610878565b60055460ff1615611ba25760405162461bcd60e51b815260206004820152601260248201527110dbdb9d1c9858dd081a5cc81c185d5cd95960721b6044820152606401610878565b335f908152600960209081526040808320600254845290915290206006015460ff1615611c375760405162461bcd60e51b815260206004820152602860248201527f5265706f727420616c7265616479207375626d697474656420666f722074686960448201527f7320706572696f640000000000000000000000000000000000000000000000006064820152608401610878565b5f611c418561224b565b90505f611c4d8561224b565b90505f611c598561224b565b90505f611c658561225d565b60408051610100808201835287825260208083018881528385018881526060850187815260028054608088018181524260a08a01908152600160c08b018181525f60e08d0181815233825260098c528e822096825295909a529b90982099518a5595519689019690965592519087015551600386015591516004850155516005840155925160069092018054935161ffff1990941692151561ff00191692909217921515029190911790559050611d1b84612273565b50611d2583612273565b50611d2f82612273565b50611d3981612273565b50611d448433612239565b50611d4f8333612239565b50611d5a8233612239565b50611d658133612239565b506002545f908152600a60205260408120600101549003611d92576002545f908152600a60205260408120555b6002545f908152600a60205260408120600101805491611db18361280e565b90915550506002545f908152600a60205260408120805491611dd28361280e565b909155505060025460405133907f6d8ca799be7f5cfdcb51084b884d4c1e16fe1a0af1742d48094783a0ca1d118b905f90a35050505050505050565b5f546001600160a01b03163314611e585760405162461bcd60e51b815260206004820152600e60248201526d139bdd08185d5d1a1bdc9a5e995960921b6044820152606401610878565b600380549082905560408051828152602081018490527f81a4fe1759d58af96859f5799571b46cb438e5215a188511956a062695eb027c910160405180910390a15050565b5f546001600160a01b03163314611ee75760405162461bcd60e51b815260206004820152600e60248201526d139bdd08185d5d1a1bdc9a5e995960921b6044820152606401610878565b6001600160a01b0381165f908152600b602052604090205460ff16611f4e5760405162461bcd60e51b815260206004820152600e60248201527f4e6f7420612076657269666965720000000000000000000000000000000000006044820152606401610878565b5f546001600160a01b0390811690821603611fab5760405162461bcd60e51b815260206004820152601360248201527f43616e6e6f742072656d6f7665206f776e6572000000000000000000000000006044820152606401610878565b6001600160a01b0381165f818152600b6020526040808220805460ff19169055517f44a3cd4eb5cc5748f6169df057b1cb2ae4c383e87cd94663c430e095d4cba4249190a250565b6060600d80548060200260200160405190810160405280929190818152602001828054801561204957602002820191905f5260205f20905b81546001600160a01b0316815260019091019060200180831161202b575b5050505050905090565b335f908152600b602052604090205460ff168061207957505f546001600160a01b031633145b6120c55760405162461bcd60e51b815260206004820152601760248201527f4e6f7420617574686f72697a65642076657269666965720000000000000000006044820152606401610878565b60055460ff161561210d5760405162461bcd60e51b815260206004820152601260248201527110dbdb9d1c9858dd081a5cc81c185d5cd95960721b6044820152606401610878565b6001600160a01b0381165f9081526008602052604090206002015460ff166121775760405162461bcd60e51b815260206004820152601660248201527f436f6d70616e79206e6f742072656769737465726564000000000000000000006044820152606401610878565b6001600160a01b0381165f90815260086020526040902060020154610100900460ff16156121e75760405162461bcd60e51b815260206004820152601860248201527f436f6d70616e7920616c726561647920766572696669656400000000000000006044820152606401610878565b6001600160a01b0381165f81815260086020526040808220600201805461ff001916610100179055513392917f770a9acc26c87bb0c3f018894166443ecbec6bb62d060f49d6fbb7c7182d847291a350565b5f6122448383612282565b5090919050565b5f6112d18263ffffffff16600461230b565b5f6112d18267ffffffffffffffff16600561230b565b5f61227e8230612282565b5090565b5f7fed8d60e34876f751cc8b014c560745351147d9de11b9347c854e881b128ea6008054604051635ca4b5b160e11b8152600481018690526001600160a01b03858116602483015292935091169063b9496b62906044015f604051808303815f87803b1580156122f0575f80fd5b505af1158015612302573d5f803e3d5ffd5b50505050505050565b7fed8d60e34876f751cc8b014c560745351147d9de11b9347c854e881b128ea60154604051639cd07acb60e01b81525f917fed8d60e34876f751cc8b014c560745351147d9de11b9347c854e881b128ea600916001600160a01b0390911690639cd07acb9061238090879087906004016128d5565b6020604051808303815f875af115801561239c573d5f803e3d5ffd5b505050506040513d601f19601f820116820180604052508101906123c09190612905565b949350505050565b5f8083601f8401126123d8575f80fd5b50813567ffffffffffffffff8111156123ef575f80fd5b602083019150836020828501011115612406575f80fd5b9250929050565b5f806020838503121561241e575f80fd5b823567ffffffffffffffff811115612434575f80fd5b612440858286016123c8565b90969095509350505050565b5f6020828403121561245c575f80fd5b5035919050565b80356001600160a01b038116811461122d575f80fd5b5f60208284031215612489575f80fd5b61249282612463565b9392505050565b5f81518084525f5b818110156124bd576020818501810151868301820152016124a1565b505f602082860101526020601f19601f83011685010191505092915050565b6001600160a01b038616815260a060208201525f6124fd60a0830187612499565b941515604083015250911515606083015260809091015292915050565b608081525f61252c6080830187612499565b9415156020830152509115156040830152606090910152919050565b5f8060408385031215612559575f80fd5b61256283612463565b946020939093013593505050565b5f805f805f60608688031215612584575f80fd5b85359450602086013567ffffffffffffffff808211156125a2575f80fd5b6125ae89838a016123c8565b909650945060408801359150808211156125c6575f80fd5b506125d3888289016123c8565b969995985093965092949392505050565b803563ffffffff8116811461122d575f80fd5b5f805f806080858703121561260a575f80fd5b612613856125e4565b9350612621602086016125e4565b925061262f604086016125e4565b9150606085013567ffffffffffffffff8116811461264b575f80fd5b939692955090935050565b602080825282518282018190525f9190848201906040850190845b818110156126965783516001600160a01b031683529284019291840191600101612671565b50909695505050505050565b634e487b7160e01b5f52604160045260245ffd5b600181811c908216806126ca57607f821691505b6020821081036126e857634e487b7160e01b5f52602260045260245ffd5b50919050565b601f82111561273557805f5260205f20601f840160051c810160208510156127135750805b601f840160051c820191505b81811015612732575f815560010161271f565b50505b505050565b815167ffffffffffffffff811115612754576127546126a2565b6127688161276284546126b6565b846126ee565b602080601f83116001811461279b575f84156127845750858301515b5f19600386901b1c1916600185901b1785556127f2565b5f85815260208120601f198616915b828110156127c9578886015182559484019460019091019084016127aa565b50858210156127e657878501515f19600388901b60f8161c191681555b505060018460011b0185555b505050505050565b634e487b7160e01b5f52601160045260245ffd5b5f6001820161281f5761281f6127fa565b5060010190565b81835281816020850137505f828201602090810191909152601f909101601f19169091010190565b602081525f6123c0602083018486612826565b634e487b7160e01b5f52603260045260245ffd5b818103818111156112d1576112d16127fa565b634e487b7160e01b5f52603160045260245ffd5b606081525f6128af606083018789612826565b82810360208401526128c2818688612826565b9150508260408301529695505050505050565b82815260408101605483106128f857634e487b7160e01b5f52602160045260245ffd5b8260208301529392505050565b5f60208284031215612915575f80fd5b505191905056fea2646970667358221220c05c1810d9bb056ab6c54151853c1433fe2b7a4872a725a61fea5301a3045f2c64736f6c63430008180033",
  "linkReferences": {},
  "deployedLinkReferences": {}
}